{
  "contractName": "DAOCrowdfunding",
  "abi": [
    {
      "inputs": [],
      "stateMutability": "nonpayable",
      "type": "constructor"
    },
    {
      "anonymous": false,
      "inputs": [
        {
          "indexed": false,
          "internalType": "uint256",
          "name": "projectId",
          "type": "uint256"
        },
        {
          "indexed": false,
          "internalType": "address",
          "name": "contributor",
          "type": "address"
        },
        {
          "indexed": false,
          "internalType": "uint256",
          "name": "amount",
          "type": "uint256"
        }
      ],
      "name": "ContributionMade",
      "type": "event"
    },
    {
      "anonymous": false,
      "inputs": [
        {
          "indexed": false,
          "internalType": "uint256",
          "name": "projectId",
          "type": "uint256"
        },
        {
          "indexed": false,
          "internalType": "uint256",
          "name": "amount",
          "type": "uint256"
        }
      ],
      "name": "FundsWithdrawn",
      "type": "event"
    },
    {
      "anonymous": false,
      "inputs": [
        {
          "indexed": false,
          "internalType": "uint256",
          "name": "projectId",
          "type": "uint256"
        },
        {
          "indexed": false,
          "internalType": "string",
          "name": "name",
          "type": "string"
        },
        {
          "indexed": false,
          "internalType": "uint256",
          "name": "fundingGoal",
          "type": "uint256"
        }
      ],
      "name": "ProjectCreated",
      "type": "event"
    },
    {
      "anonymous": false,
      "inputs": [
        {
          "indexed": false,
          "internalType": "uint256",
          "name": "proposalId",
          "type": "uint256"
        },
        {
          "indexed": false,
          "internalType": "uint256",
          "name": "projectId",
          "type": "uint256"
        },
        {
          "indexed": false,
          "internalType": "string",
          "name": "description",
          "type": "string"
        }
      ],
      "name": "ProposalCreated",
      "type": "event"
    },
    {
      "anonymous": false,
      "inputs": [
        {
          "indexed": false,
          "internalType": "address",
          "name": "proposer",
          "type": "address"
        }
      ],
      "name": "ProposerAdded",
      "type": "event"
    },
    {
      "anonymous": false,
      "inputs": [
        {
          "indexed": false,
          "internalType": "address",
          "name": "proposer",
          "type": "address"
        }
      ],
      "name": "ProposerRemoved",
      "type": "event"
    },
    {
      "anonymous": false,
      "inputs": [
        {
          "indexed": false,
          "internalType": "uint256",
          "name": "proposalId",
          "type": "uint256"
        },
        {
          "indexed": false,
          "internalType": "address",
          "name": "voter",
          "type": "address"
        },
        {
          "indexed": false,
          "internalType": "bool",
          "name": "support",
          "type": "bool"
        }
      ],
      "name": "Voted",
      "type": "event"
    },
    {
      "inputs": [],
      "name": "owner",
      "outputs": [
        {
          "internalType": "address",
          "name": "",
          "type": "address"
        }
      ],
      "stateMutability": "view",
      "type": "function",
      "constant": true
    },
    {
      "inputs": [],
      "name": "projectCount",
      "outputs": [
        {
          "internalType": "uint256",
          "name": "",
          "type": "uint256"
        }
      ],
      "stateMutability": "view",
      "type": "function",
      "constant": true
    },
    {
      "inputs": [
        {
          "internalType": "uint256",
          "name": "",
          "type": "uint256"
        }
      ],
      "name": "projects",
      "outputs": [
        {
          "internalType": "address",
          "name": "creator",
          "type": "address"
        },
        {
          "internalType": "string",
          "name": "name",
          "type": "string"
        },
        {
          "internalType": "string",
          "name": "description",
          "type": "string"
        },
        {
          "internalType": "uint256",
          "name": "fundingGoal",
          "type": "uint256"
        },
        {
          "internalType": "uint256",
          "name": "currentAmount",
          "type": "uint256"
        },
        {
          "internalType": "uint256",
          "name": "deadline",
          "type": "uint256"
        },
        {
          "internalType": "bool",
          "name": "funded",
          "type": "bool"
        }
      ],
      "stateMutability": "view",
      "type": "function",
      "constant": true
    },
    {
      "inputs": [],
      "name": "proposalCount",
      "outputs": [
        {
          "internalType": "uint256",
          "name": "",
          "type": "uint256"
        }
      ],
      "stateMutability": "view",
      "type": "function",
      "constant": true
    },
    {
      "inputs": [
        {
          "internalType": "uint256",
          "name": "",
          "type": "uint256"
        }
      ],
      "name": "proposals",
      "outputs": [
        {
          "internalType": "uint256",
          "name": "projectId",
          "type": "uint256"
        },
        {
          "internalType": "string",
          "name": "description",
          "type": "string"
        },
        {
          "internalType": "uint256",
          "name": "votesFor",
          "type": "uint256"
        },
        {
          "internalType": "uint256",
          "name": "votesAgainst",
          "type": "uint256"
        },
        {
          "internalType": "uint256",
          "name": "deadline",
          "type": "uint256"
        },
        {
          "internalType": "bool",
          "name": "executed",
          "type": "bool"
        }
      ],
      "stateMutability": "view",
      "type": "function",
      "constant": true
    },
    {
      "inputs": [
        {
          "internalType": "address",
          "name": "",
          "type": "address"
        }
      ],
      "name": "proposers",
      "outputs": [
        {
          "internalType": "bool",
          "name": "",
          "type": "bool"
        }
      ],
      "stateMutability": "view",
      "type": "function",
      "constant": true
    },
    {
      "inputs": [
        {
          "internalType": "address",
          "name": "_proposer",
          "type": "address"
        }
      ],
      "name": "addProposer",
      "outputs": [],
      "stateMutability": "nonpayable",
      "type": "function"
    },
    {
      "inputs": [
        {
          "internalType": "address",
          "name": "_proposer",
          "type": "address"
        }
      ],
      "name": "removeProposer",
      "outputs": [],
      "stateMutability": "nonpayable",
      "type": "function"
    },
    {
      "inputs": [
        {
          "internalType": "string",
          "name": "_name",
          "type": "string"
        },
        {
          "internalType": "string",
          "name": "_description",
          "type": "string"
        },
        {
          "internalType": "uint256",
          "name": "_fundingGoal",
          "type": "uint256"
        },
        {
          "internalType": "uint256",
          "name": "_durationInDays",
          "type": "uint256"
        }
      ],
      "name": "createProject",
      "outputs": [
        {
          "internalType": "uint256",
          "name": "",
          "type": "uint256"
        }
      ],
      "stateMutability": "nonpayable",
      "type": "function"
    },
    {
      "inputs": [
        {
          "internalType": "uint256",
          "name": "_projectId",
          "type": "uint256"
        }
      ],
      "name": "contribute",
      "outputs": [],
      "stateMutability": "payable",
      "type": "function",
      "payable": true
    },
    {
      "inputs": [
        {
          "internalType": "uint256",
          "name": "_projectId",
          "type": "uint256"
        }
      ],
      "name": "withdrawFunds",
      "outputs": [],
      "stateMutability": "nonpayable",
      "type": "function"
    },
    {
      "inputs": [
        {
          "internalType": "uint256",
          "name": "_projectId",
          "type": "uint256"
        },
        {
          "internalType": "string",
          "name": "_description",
          "type": "string"
        }
      ],
      "name": "createProposal",
      "outputs": [
        {
          "internalType": "uint256",
          "name": "",
          "type": "uint256"
        }
      ],
      "stateMutability": "nonpayable",
      "type": "function"
    },
    {
      "inputs": [
        {
          "internalType": "uint256",
          "name": "_proposalId",
          "type": "uint256"
        },
        {
          "internalType": "bool",
          "name": "_support",
          "type": "bool"
        }
      ],
      "name": "vote",
      "outputs": [],
      "stateMutability": "nonpayable",
      "type": "function"
    },
    {
      "inputs": [
        {
          "internalType": "uint256",
          "name": "_projectId",
          "type": "uint256"
        }
      ],
      "name": "getProject",
      "outputs": [
        {
          "internalType": "address",
          "name": "creator",
          "type": "address"
        },
        {
          "internalType": "string",
          "name": "name",
          "type": "string"
        },
        {
          "internalType": "string",
          "name": "description",
          "type": "string"
        },
        {
          "internalType": "uint256",
          "name": "fundingGoal",
          "type": "uint256"
        },
        {
          "internalType": "uint256",
          "name": "currentAmount",
          "type": "uint256"
        },
        {
          "internalType": "uint256",
          "name": "deadline",
          "type": "uint256"
        },
        {
          "internalType": "bool",
          "name": "funded",
          "type": "bool"
        }
      ],
      "stateMutability": "view",
      "type": "function",
      "constant": true
    },
    {
      "inputs": [
        {
          "internalType": "uint256",
          "name": "_projectId",
          "type": "uint256"
        },
        {
          "internalType": "address",
          "name": "_contributor",
          "type": "address"
        }
      ],
      "name": "getContribution",
      "outputs": [
        {
          "internalType": "uint256",
          "name": "",
          "type": "uint256"
        }
      ],
      "stateMutability": "view",
      "type": "function",
      "constant": true
    },
    {
      "inputs": [
        {
          "internalType": "uint256",
          "name": "_proposalId",
          "type": "uint256"
        }
      ],
      "name": "getProposal",
      "outputs": [
        {
          "internalType": "uint256",
          "name": "projectId",
          "type": "uint256"
        },
        {
          "internalType": "string",
          "name": "description",
          "type": "string"
        },
        {
          "internalType": "uint256",
          "name": "votesFor",
          "type": "uint256"
        },
        {
          "internalType": "uint256",
          "name": "votesAgainst",
          "type": "uint256"
        },
        {
          "internalType": "uint256",
          "name": "deadline",
          "type": "uint256"
        },
        {
          "internalType": "bool",
          "name": "executed",
          "type": "bool"
        }
      ],
      "stateMutability": "view",
      "type": "function",
      "constant": true
    }
  ],
  "bytecode": "0x608060405234801561001057600080fd5b50336000806101000a81548173ffffffffffffffffffffffffffffffffffffffff021916908373ffffffffffffffffffffffffffffffffffffffff16021790555060018060003373ffffffffffffffffffffffffffffffffffffffff1673ffffffffffffffffffffffffffffffffffffffff16815260200190815260200160002060006101000a81548160ff02191690831515021790555060006004819055506000600581905550612512806100c76000396000f3fe6080604052600436106100f35760003560e01c806394ba97091161008a578063c9d27afe11610059578063c9d27afe14610363578063da35c6641461038c578063e081dbf9146103b7578063f0f3f2c8146103f4576100f3565b806394ba97091461029f578063b03cd418146102dc578063c1cbbca714610305578063c7f758a814610321576100f3565b8063155dd5ee116100c6578063155dd5ee146101e3578063181774971461020c57806336fbad26146102495780638da5cb5b14610274576100f3565b8063013cf08b146100f857806302d52fa41461013a57806309d632d314610177578063107046bd146101a0575b600080fd5b34801561010457600080fd5b5061011f600480360381019061011a919061185a565b610437565b60405161013196959493929190612136565b60405180910390f35b34801561014657600080fd5b50610161600480360381019061015c91906118fb565b610508565b60405161016e919061206f565b60405180910390f35b34801561018357600080fd5b5061019e6004803603810190610199919061179e565b6106ae565b005b3480156101ac57600080fd5b506101c760048036038101906101c2919061185a565b6107ce565b6040516101da9796959493929190611e17565b60405180910390f35b3480156101ef57600080fd5b5061020a6004803603810190610205919061185a565b61094d565b005b34801561021857600080fd5b50610233600480360381019061022e919061179e565b610b45565b6040516102409190611e94565b60405180910390f35b34801561025557600080fd5b5061025e610b65565b60405161026b919061206f565b60405180910390f35b34801561028057600080fd5b50610289610b6b565b6040516102969190611dfc565b60405180910390f35b3480156102ab57600080fd5b506102c660048036038101906102c191906117c7565b610b8f565b6040516102d3919061206f565b60405180910390f35b3480156102e857600080fd5b5061030360048036038101906102fe919061179e565b610d53565b005b61031f600480360381019061031a919061185a565b610e72565b005b34801561032d57600080fd5b506103486004803603810190610343919061185a565b611035565b60405161035a96959493929190612136565b60405180910390f35b34801561036f57600080fd5b5061038a600480360381019061038591906118bf565b611166565b005b34801561039857600080fd5b506103a16113c6565b6040516103ae919061206f565b60405180910390f35b3480156103c357600080fd5b506103de60048036038101906103d99190611883565b6113cc565b6040516103eb919061206f565b60405180910390f35b34801561040057600080fd5b5061041b6004803603810190610416919061185a565b61146e565b60405161042e9796959493929190611e17565b60405180910390f35b6003602052806000526040600020600091509050806000015490806001018054610460906123c7565b80601f016020809104026020016040519081016040528092919081815260200182805461048c906123c7565b80156104d95780601f106104ae576101008083540402835291602001916104d9565b820191906000526020600020905b8154815290600101906020018083116104bc57829003601f168201915b5050505050908060020154908060030154908060040154908060050160009054906101000a900460ff16905086565b6000600160003373ffffffffffffffffffffffffffffffffffffffff1673ffffffffffffffffffffffffffffffffffffffff16815260200190815260200160002060009054906101000a900460ff16610596576040517f08c379a000000000000000000000000000000000000000000000000000000000815260040161058d90611faf565b60405180910390fd5b60045483106105da576040517f08c379a00000000000000000000000000000000000000000000000000000000081526004016105d19061202f565b60405180910390fd5b60006005549050600060036000838152602001908152602001600020905084816000018190555083816001019080519060200190610619929190611654565b5062093a8042610629919061228d565b816004018190555060008160050160006101000a81548160ff021916908315150217905550600160056000828254610661919061228d565b925050819055507f7aade497c2cd4241d757f694370d0e4a250bfa251b3ab287406b2ab58d3fdad682868660405161069b939291906121c7565b60405180910390a1819250505092915050565b60008054906101000a900473ffffffffffffffffffffffffffffffffffffffff1673ffffffffffffffffffffffffffffffffffffffff163373ffffffffffffffffffffffffffffffffffffffff161461073c576040517f08c379a000000000000000000000000000000000000000000000000000000000815260040161073390611eaf565b60405180910390fd5b6000600160008373ffffffffffffffffffffffffffffffffffffffff1673ffffffffffffffffffffffffffffffffffffffff16815260200190815260200160002060006101000a81548160ff0219169083151502179055507fbab6b194452fd4fa50e0ca09bf0f89976da30a2b92fdf91372ad1a176d81e328816040516107c39190611dfc565b60405180910390a150565b60026020528060005260406000206000915090508060000160009054906101000a900473ffffffffffffffffffffffffffffffffffffffff1690806001018054610817906123c7565b80601f0160208091040260200160405190810160405280929190818152602001828054610843906123c7565b80156108905780601f1061086557610100808354040283529160200191610890565b820191906000526020600020905b81548152906001019060200180831161087357829003601f168201915b5050505050908060020180546108a5906123c7565b80601f01602080910402602001604051908101604052809291908181526020018280546108d1906123c7565b801561091e5780601f106108f35761010080835404028352916020019161091e565b820191906000526020600020905b81548152906001019060200180831161090157829003601f168201915b5050505050908060030154908060040154908060050154908060060160009054906101000a900460ff16905087565b60006002600083815260200190815260200160002090508060000160009054906101000a900473ffffffffffffffffffffffffffffffffffffffff1673ffffffffffffffffffffffffffffffffffffffff163373ffffffffffffffffffffffffffffffffffffffff16146109f6576040517f08c379a00000000000000000000000000000000000000000000000000000000081526004016109ed90611f0f565b60405180910390fd5b8060060160009054906101000a900460ff16610a47576040517f08c379a0000000000000000000000000000000000000000000000000000000008152600401610a3e90611fef565b60405180910390fd5b6000816004015490506000826004018190555060003373ffffffffffffffffffffffffffffffffffffffff1682604051610a8090611de7565b60006040518083038185875af1925050503d8060008114610abd576040519150601f19603f3d011682016040523d82523d6000602084013e610ac2565b606091505b5050905080610b06576040517f08c379a0000000000000000000000000000000000000000000000000000000008152600401610afd90611ecf565b60405180910390fd5b7fd66662c0ded9e58fd31d5e44944bcfd07ffc15e6927ecc1382e7941cb7bd24c48483604051610b3792919061219e565b60405180910390a150505050565b60016020528060005260406000206000915054906101000a900460ff1681565b60045481565b60008054906101000a900473ffffffffffffffffffffffffffffffffffffffff1681565b6000808311610bd3576040517f08c379a0000000000000000000000000000000000000000000000000000000008152600401610bca90611fcf565b60405180910390fd5b60008211610c16576040517f08c379a0000000000000000000000000000000000000000000000000000000008152600401610c0d90611f2f565b60405180910390fd5b600060045490506000600260008381526020019081526020016000209050338160000160006101000a81548173ffffffffffffffffffffffffffffffffffffffff021916908373ffffffffffffffffffffffffffffffffffffffff16021790555086816001019080519060200190610c8f929190611654565b5085816002019080519060200190610ca8929190611654565b508481600301819055506201518084610cc191906122e3565b42610ccc919061228d565b816005018190555060008160060160006101000a81548160ff021916908315150217905550600160046000828254610d04919061228d565b925050819055507f6245d01eb0db8df9242165c3ee1e2324367f93303d7b8f6a86e38a8767e643ae828887604051610d3e939291906120f8565b60405180910390a18192505050949350505050565b60008054906101000a900473ffffffffffffffffffffffffffffffffffffffff1673ffffffffffffffffffffffffffffffffffffffff163373ffffffffffffffffffffffffffffffffffffffff1614610de1576040517f08c379a0000000000000000000000000000000000000000000000000000000008152600401610dd890611eaf565b60405180910390fd5b60018060008373ffffffffffffffffffffffffffffffffffffffff1673ffffffffffffffffffffffffffffffffffffffff16815260200190815260200160002060006101000a81548160ff0219169083151502179055507f2bf05609716bc4b090ad0e99b47b91881c7517771259c625df05db7e9d8c818181604051610e679190611dfc565b60405180910390a150565b6004548110610eb6576040517f08c379a0000000000000000000000000000000000000000000000000000000008152600401610ead9061202f565b60405180910390fd5b600060026000838152602001908152602001600020905060003411610f10576040517f08c379a0000000000000000000000000000000000000000000000000000000008152600401610f0790611f6f565b60405180910390fd5b80600501544210610f56576040517f08c379a0000000000000000000000000000000000000000000000000000000008152600401610f4d9061204f565b60405180910390fd5b348160070160003373ffffffffffffffffffffffffffffffffffffffff1673ffffffffffffffffffffffffffffffffffffffff1681526020019081526020016000206000828254610fa7919061228d565b9250508190555034816004016000828254610fc2919061228d565b925050819055508060030154816004015410610ff65760018160060160006101000a81548160ff0219169083151502179055505b7f0a4a91237423e0a1766a761c7cb029311d8b95d6b1b81db1b949a70c98b4e08e823334604051611029939291906120c1565b60405180910390a15050565b600060606000806000806005548710611083576040517f08c379a000000000000000000000000000000000000000000000000000000000815260040161107a90611f8f565b60405180910390fd5b60006003600089815260200190815260200160002090508060000154816001018260020154836003015484600401548560050160009054906101000a900460ff168480546110d0906123c7565b80601f01602080910402602001604051908101604052809291908181526020018280546110fc906123c7565b80156111495780601f1061111e57610100808354040283529160200191611149565b820191906000526020600020905b81548152906001019060200180831161112c57829003601f168201915b505050505094509650965096509650965096505091939550919395565b60055482106111aa576040517f08c379a00000000000000000000000000000000000000000000000000000000081526004016111a190611f8f565b60405180910390fd5b60006003600084815260200190815260200160002090508060060160003373ffffffffffffffffffffffffffffffffffffffff1673ffffffffffffffffffffffffffffffffffffffff16815260200190815260200160002060009054906101000a900460ff1615611250576040517f08c379a000000000000000000000000000000000000000000000000000000000815260040161124790611f4f565b60405180910390fd5b80600401544210611296576040517f08c379a000000000000000000000000000000000000000000000000000000000815260040161128d9061200f565b60405180910390fd5b8060050160009054906101000a900460ff16156112e8576040517f08c379a00000000000000000000000000000000000000000000000000000000081526004016112df90611eef565b60405180910390fd5b811561130f576001816002016000828254611303919061228d565b9250508190555061132c565b6001816003016000828254611324919061228d565b925050819055505b60018160060160003373ffffffffffffffffffffffffffffffffffffffff1673ffffffffffffffffffffffffffffffffffffffff16815260200190815260200160002060006101000a81548160ff0219169083151502179055507ff2913dbe661ee2acc4a046d8fbcdc792373bda34c41c6086484b5345e5785e5f8333846040516113b99392919061208a565b60405180910390a1505050565b60055481565b60006004548310611412576040517f08c379a00000000000000000000000000000000000000000000000000000000081526004016114099061202f565b60405180910390fd5b6002600084815260200190815260200160002060070160008373ffffffffffffffffffffffffffffffffffffffff1673ffffffffffffffffffffffffffffffffffffffff16815260200190815260200160002054905092915050565b600060608060008060008060045488106114bd576040517f08c379a00000000000000000000000000000000000000000000000000000000081526004016114b49061202f565b60405180910390fd5b6000600260008a815260200190815260200160002090508060000160009054906101000a900473ffffffffffffffffffffffffffffffffffffffff1681600101826002018360030154846004015485600501548660060160009054906101000a900460ff1685805461152e906123c7565b80601f016020809104026020016040519081016040528092919081815260200182805461155a906123c7565b80156115a75780601f1061157c576101008083540402835291602001916115a7565b820191906000526020600020905b81548152906001019060200180831161158a57829003601f168201915b505050505095508480546115ba906123c7565b80601f01602080910402602001604051908101604052809291908181526020018280546115e6906123c7565b80156116335780601f1061160857610100808354040283529160200191611633565b820191906000526020600020905b81548152906001019060200180831161161657829003601f168201915b50505050509450975097509750975097509750975050919395979092949650565b828054611660906123c7565b90600052602060002090601f01602090048101928261168257600085556116c9565b82601f1061169b57805160ff19168380011785556116c9565b828001600101855582156116c9579182015b828111156116c85782518255916020019190600101906116ad565b5b5090506116d691906116da565b5090565b5b808211156116f35760008160009055506001016116db565b5090565b600061170a61170584612236565b612205565b90508281526020810184848401111561172257600080fd5b61172d848285612385565b509392505050565b60008135905061174481612497565b92915050565b600081359050611759816124ae565b92915050565b600082601f83011261177057600080fd5b81356117808482602086016116f7565b91505092915050565b600081359050611798816124c5565b92915050565b6000602082840312156117b057600080fd5b60006117be84828501611735565b91505092915050565b600080600080608085870312156117dd57600080fd5b600085013567ffffffffffffffff8111156117f757600080fd5b6118038782880161175f565b945050602085013567ffffffffffffffff81111561182057600080fd5b61182c8782880161175f565b935050604061183d87828801611789565b925050606061184e87828801611789565b91505092959194509250565b60006020828403121561186c57600080fd5b600061187a84828501611789565b91505092915050565b6000806040838503121561189657600080fd5b60006118a485828601611789565b92505060206118b585828601611735565b9150509250929050565b600080604083850312156118d257600080fd5b60006118e085828601611789565b92505060206118f18582860161174a565b9150509250929050565b6000806040838503121561190e57600080fd5b600061191c85828601611789565b925050602083013567ffffffffffffffff81111561193957600080fd5b6119458582860161175f565b9150509250929050565b6119588161233d565b82525050565b6119678161234f565b82525050565b600061197882612266565b611982818561227c565b9350611992818560208601612394565b61199b81612486565b840191505092915050565b60006119b360218361227c565b91507f4f6e6c79206f776e65722063616e2063616c6c20746869732066756e6374696f60008301527f6e000000000000000000000000000000000000000000000000000000000000006020830152604082019050919050565b6000611a19600f8361227c565b91507f5472616e73666572206661696c656400000000000000000000000000000000006000830152602082019050919050565b6000611a5960198361227c565b91507f50726f706f73616c20616c7265616479206578656375746564000000000000006000830152602082019050919050565b6000611a9960218361227c565b91507f4f6e6c792070726f6a6563742063726561746f722063616e207769746864726160008301527f77000000000000000000000000000000000000000000000000000000000000006020830152604082019050919050565b6000611aff601f8361227c565b91507f4475726174696f6e206d7573742062652067726561746572207468616e2030006000830152602082019050919050565b6000611b3f600d8361227c565b91507f416c726561647920766f746564000000000000000000000000000000000000006000830152602082019050919050565b6000611b7f60128361227c565b91507f4d7573742073656e6420736f6d652045544800000000000000000000000000006000830152602082019050919050565b6000611bbf60178361227c565b91507f50726f706f73616c20646f6573206e6f742065786973740000000000000000006000830152602082019050919050565b6000611bff60248361227c565b91507f4f6e6c792070726f706f7365722063616e2063616c6c20746869732066756e6360008301527f74696f6e000000000000000000000000000000000000000000000000000000006020830152604082019050919050565b6000611c6560238361227c565b91507f46756e64696e6720676f616c206d75737420626520677265617465722074686160008301527f6e203000000000000000000000000000000000000000000000000000000000006020830152604082019050919050565b6000611ccb601b8361227c565b91507f50726f6a656374206973206e6f742066756c6c792066756e64656400000000006000830152602082019050919050565b6000611d0b600083612271565b9150600082019050919050565b6000611d2560178361227c565b91507f566f74696e6720706572696f642068617320656e6465640000000000000000006000830152602082019050919050565b6000611d6560168361227c565b91507f50726f6a65637420646f6573206e6f74206578697374000000000000000000006000830152602082019050919050565b6000611da560208361227c565b91507f50726f6a6563742066756e64696e6720706572696f642068617320656e6465646000830152602082019050919050565b611de18161237b565b82525050565b6000611df282611cfe565b9150819050919050565b6000602082019050611e11600083018461194f565b92915050565b600060e082019050611e2c600083018a61194f565b8181036020830152611e3e818961196d565b90508181036040830152611e52818861196d565b9050611e616060830187611dd8565b611e6e6080830186611dd8565b611e7b60a0830185611dd8565b611e8860c083018461195e565b98975050505050505050565b6000602082019050611ea9600083018461195e565b92915050565b60006020820190508181036000830152611ec8816119a6565b9050919050565b60006020820190508181036000830152611ee881611a0c565b9050919050565b60006020820190508181036000830152611f0881611a4c565b9050919050565b60006020820190508181036000830152611f2881611a8c565b9050919050565b60006020820190508181036000830152611f4881611af2565b9050919050565b60006020820190508181036000830152611f6881611b32565b9050919050565b60006020820190508181036000830152611f8881611b72565b9050919050565b60006020820190508181036000830152611fa881611bb2565b9050919050565b60006020820190508181036000830152611fc881611bf2565b9050919050565b60006020820190508181036000830152611fe881611c58565b9050919050565b6000602082019050818103600083015261200881611cbe565b9050919050565b6000602082019050818103600083015261202881611d18565b9050919050565b6000602082019050818103600083015261204881611d58565b9050919050565b6000602082019050818103600083015261206881611d98565b9050919050565b60006020820190506120846000830184611dd8565b92915050565b600060608201905061209f6000830186611dd8565b6120ac602083018561194f565b6120b9604083018461195e565b949350505050565b60006060820190506120d66000830186611dd8565b6120e3602083018561194f565b6120f06040830184611dd8565b949350505050565b600060608201905061210d6000830186611dd8565b818103602083015261211f818561196d565b905061212e6040830184611dd8565b949350505050565b600060c08201905061214b6000830189611dd8565b818103602083015261215d818861196d565b905061216c6040830187611dd8565b6121796060830186611dd8565b6121866080830185611dd8565b61219360a083018461195e565b979650505050505050565b60006040820190506121b36000830185611dd8565b6121c06020830184611dd8565b9392505050565b60006060820190506121dc6000830186611dd8565b6121e96020830185611dd8565b81810360408301526121fb818461196d565b9050949350505050565b6000604051905081810181811067ffffffffffffffff8211171561222c5761222b612457565b5b8060405250919050565b600067ffffffffffffffff82111561225157612250612457565b5b601f19601f8301169050602081019050919050565b600081519050919050565b600081905092915050565b600082825260208201905092915050565b60006122988261237b565b91506122a38361237b565b9250827fffffffffffffffffffffffffffffffffffffffffffffffffffffffffffffffff038211156122d8576122d76123f9565b5b828201905092915050565b60006122ee8261237b565b91506122f98361237b565b9250817fffffffffffffffffffffffffffffffffffffffffffffffffffffffffffffffff0483118215151615612332576123316123f9565b5b828202905092915050565b60006123488261235b565b9050919050565b60008115159050919050565b600073ffffffffffffffffffffffffffffffffffffffff82169050919050565b6000819050919050565b82818337600083830152505050565b60005b838110156123b2578082015181840152602081019050612397565b838111156123c1576000848401525b50505050565b600060028204905060018216806123df57607f821691505b602082108114156123f3576123f2612428565b5b50919050565b7f4e487b7100000000000000000000000000000000000000000000000000000000600052601160045260246000fd5b7f4e487b7100000000000000000000000000000000000000000000000000000000600052602260045260246000fd5b7f4e487b7100000000000000000000000000000000000000000000000000000000600052604160045260246000fd5b6000601f19601f8301169050919050565b6124a08161233d565b81146124ab57600080fd5b50565b6124b78161234f565b81146124c257600080fd5b50565b6124ce8161237b565b81146124d957600080fd5b5056fea2646970667358221220e0d444a61703f9b201aa689257d444b673ffffc797312398ea04af663f7fd8cc64736f6c63430008000033",
  "immutableReferences": {},
  "source": "// SPDX-License-Identifier: MIT\npragma solidity ^0.8.0;\n\ncontract DAOCrowdfunding {\n    address public owner;\n    mapping(address => bool) public proposers;\n    \n    struct Project {\n        address creator;\n        string name;\n        string description;\n        uint256 fundingGoal;\n        uint256 currentAmount;\n        uint256 deadline;\n        bool funded;\n        mapping(address => uint256) contributions;\n    }\n    \n    struct Proposal {\n        uint256 projectId;\n        string description;\n        uint256 votesFor;\n        uint256 votesAgainst;  // Fixed the variable name here\n        uint256 deadline;\n        bool executed;\n        mapping(address => bool) hasVoted;\n    }\n    \n    mapping(uint256 => Project) public projects;\n    mapping(uint256 => Proposal) public proposals;\n    uint256 public projectCount;\n    uint256 public proposalCount;\n    \n    event ProjectCreated(uint256 projectId, string name, uint256 fundingGoal);\n    event ContributionMade(uint256 projectId, address contributor, uint256 amount);\n    event FundsWithdrawn(uint256 projectId, uint256 amount);\n    event ProposalCreated(uint256 proposalId, uint256 projectId, string description);\n    event Voted(uint256 proposalId, address voter, bool support);\n    event ProposerAdded(address proposer);\n    event ProposerRemoved(address proposer);\n    \n    modifier onlyOwner() {\n        require(msg.sender == owner, \"Only owner can call this function\");\n        _;\n    }\n    \n    modifier onlyProposer() {\n        require(proposers[msg.sender], \"Only proposer can call this function\");\n        _;\n    }\n    \n    constructor() {\n        owner = msg.sender;\n        proposers[msg.sender] = true;\n        projectCount = 0;\n        proposalCount = 0;\n    }\n    \n    function addProposer(address _proposer) external onlyOwner {\n        proposers[_proposer] = true;\n        emit ProposerAdded(_proposer);\n    }\n    \n    function removeProposer(address _proposer) external onlyOwner {\n        proposers[_proposer] = false;\n        emit ProposerRemoved(_proposer);\n    }\n    \n    function createProject(\n        string memory _name,\n        string memory _description,\n        uint256 _fundingGoal,\n        uint256 _durationInDays\n    ) public returns (uint256) {\n        require(_fundingGoal > 0, \"Funding goal must be greater than 0\");\n        require(_durationInDays > 0, \"Duration must be greater than 0\");\n        \n        uint256 projectId = projectCount;\n        Project storage project = projects[projectId];\n        \n        project.creator = msg.sender;\n        project.name = _name;\n        project.description = _description;\n        project.fundingGoal = _fundingGoal;\n        project.deadline = block.timestamp + (_durationInDays * 1 days);\n        project.funded = false;\n        \n        projectCount += 1;\n        \n        emit ProjectCreated(projectId, _name, _fundingGoal);\n        return projectId;\n    }\n    \n    function contribute(uint256 _projectId) public payable {\n        require(_projectId < projectCount, \"Project does not exist\");\n        Project storage project = projects[_projectId];\n        \n        require(msg.value > 0, \"Must send some ETH\");\n        require(block.timestamp < project.deadline, \"Project funding period has ended\");\n        \n        project.contributions[msg.sender] += msg.value;\n        project.currentAmount += msg.value;\n        \n        if (project.currentAmount >= project.fundingGoal) {\n            project.funded = true;\n        }\n        \n        emit ContributionMade(_projectId, msg.sender, msg.value);\n    }\n    \n    function withdrawFunds(uint256 _projectId) public {\n        Project storage project = projects[_projectId];\n        require(msg.sender == project.creator, \"Only project creator can withdraw\");\n        require(project.funded, \"Project is not fully funded\");\n        \n        uint256 amount = project.currentAmount;\n        project.currentAmount = 0;\n        \n        (bool success, ) = payable(msg.sender).call{value: amount}(\"\");\n        require(success, \"Transfer failed\");\n        \n        emit FundsWithdrawn(_projectId, amount);\n    }\n    \n    function createProposal(\n        uint256 _projectId,\n        string memory _description\n    ) public onlyProposer returns (uint256) {\n        require(_projectId < projectCount, \"Project does not exist\");\n        \n        uint256 proposalId = proposalCount;\n        Proposal storage proposal = proposals[proposalId];\n        \n        proposal.projectId = _projectId;\n        proposal.description = _description;\n        proposal.deadline = block.timestamp + 7 days;\n        proposal.executed = false;\n        \n        proposalCount += 1;\n        \n        emit ProposalCreated(proposalId, _projectId, _description);\n        return proposalId;\n    }\n    \n    function vote(uint256 _proposalId, bool _support) public {\n        require(_proposalId < proposalCount, \"Proposal does not exist\");\n        Proposal storage proposal = proposals[_proposalId];\n        \n        require(!proposal.hasVoted[msg.sender], \"Already voted\");\n        require(block.timestamp < proposal.deadline, \"Voting period has ended\");\n        require(!proposal.executed, \"Proposal already executed\");\n        \n        if (_support) {\n            proposal.votesFor += 1;\n        } else {\n            proposal.votesAgainst += 1;  // Fixed the typo here\n        }\n        \n        proposal.hasVoted[msg.sender] = true;\n        \n        emit Voted(_proposalId, msg.sender, _support);\n    }\n    \n    function getProject(uint256 _projectId) public view returns (\n        address creator,\n        string memory name,\n        string memory description,\n        uint256 fundingGoal,\n        uint256 currentAmount,\n        uint256 deadline,\n        bool funded\n    ) {\n        require(_projectId < projectCount, \"Project does not exist\");\n        Project storage project = projects[_projectId];\n        \n        return (\n            project.creator,\n            project.name,\n            project.description,\n            project.fundingGoal,\n            project.currentAmount,\n            project.deadline,\n            project.funded\n        );\n    }\n    \n    function getContribution(uint256 _projectId, address _contributor) public view returns (uint256) {\n        require(_projectId < projectCount, \"Project does not exist\");\n        return projects[_projectId].contributions[_contributor];\n    }\n    \n    function getProposal(uint256 _proposalId) public view returns (\n        uint256 projectId,\n        string memory description,\n        uint256 votesFor,\n        uint256 votesAgainst,\n        uint256 deadline,\n        bool executed\n    ) {\n        require(_proposalId < proposalCount, \"Proposal does not exist\");\n        Proposal storage proposal = proposals[_proposalId];\n        \n        return (\n            proposal.projectId,\n            proposal.description,\n            proposal.votesFor,\n            proposal.votesAgainst,\n            proposal.deadline,\n            proposal.executed\n        );\n    }\n}",
  "sourcePath": "/Users/jayanth/dao-claude/contracts/DAOCrowdfunding.sol",
  "compiler": {
    "name": "solc",
    "version": "0.8.0+commit.c7dfd78e.Emscripten.clang"
  },
  "schemaVersion": "3.4.16",
  "updatedAt": "2024-12-19T02:07:19.018Z",
  "networkType": "ethereum",
  "devdoc": {
    "kind": "dev",
    "methods": {},
    "version": 1
  },
  "userdoc": {
    "kind": "user",
    "methods": {},
    "version": 1
  }
}